S0140000547261666669634C696768742E7372656359
S11300000C942A000C9447000C9447000C9447006D
S11300100C9447000C9447000C9447000C94470040
S11300200C9447000C9447000C94DA020C9447009B
S11300300C9447000C9447000C9447000C94470020
S11300400C9447000C9447000C9447000C94470010
S11300500C94470011241FBECFE5D8E0DEBFCDBF0E
S113006010E0A0E6B0E0EAE9F8E002C005900D92E5
S1130070A836B107D9F720E0A8E6B0E001C01D9288
S1130080A33AB207E1F70E947B020C944B040C9450
S113009000000E948B030E94F5030E9458030895F8
S11300A00E94C5030E9435040E948403F9CF262FC1
S11300B0372F2B33310569F44AB321E030E0B9011D
S11300C002C0660F771F8A95E2F7CB0180958423DF
S11300D08ABB0895913089F4262F372F2B333105AD
S11300E0E9F429B330E0A90102C0559547958A95F2
S11300F0E2F740FD14C080E00895262F372F2B33FC
S1130100310561F429B330E0A90102C05595479542
S11301108A95E2F740FF05C080E00895089581E0E4
S1130120089581E00895262F372F2B33310561F48C
S11301304AB321E030E0B90102C0660F771F8A9507
S1130140E2F7CB01842B8ABB0895413079F4E62F82
S1130150F72F408121E030E0B90102C0660F771F1C
S11301608A95E2F7CB01842B80830895E62FF72F3D
S1130170408121E030E0B90102C0660F771F8A9503
S1130180E2F7CB018095842380830895E62FF72F2F
S1130190908121E030E002C0220F331F8A95E2F7FC
S11301A0292720830895E0916A00F0916B008685E9
S11301B0813031F460857185828593850E94C60003
S11301C00895E0916A00F0916B0081E08587848551
S11301D0823011F4148608958F5F84870895E09126
S11301E06800F09169008685813031F460857185FD
S11301F0828593850E94C6000895E0916800F0917D
S1130200690081E085878485823011F4148608951D
S11302108F5F84870895CF93DF93EC0190936B00F5
S113022080936A00688179818A819B810E9493000E
S1130230688579858A859B850E9493006C817D8180
S11302408E819F810E9493000E948C0284EF91E032
S11302500E949A0288E893E10E94AA02E0916A004F
S1130260F0916B0082E0848781E08587DF91CF91F4
S11302700895CF93DF93EC01909369008093680015
S1130280688179818A819B810E9493006885798540
S11302908A859B850E9493006C817D818E819F81DC
S11302A00E9493000E948C0284EF91E00E94BA02A3
S11302B088E893E10E94CA02E0916800F091690025
S11302C082E0848781E08587DF91CF910895E09172
S11302D06A00F0916B0084858230F9F416861586E5
S11302E0608171818281938141E00E94A500E09147
S11302F06A00F0916B00608571858285938540E08A
S11303000E94A500E0916A00F0916B006481758100
S11303108681978140E00E94A500E0916A00F091F7
S11303206B00848581111FC01686158660817181DA
S11303308281938140E00E94A500E0916A00F091DF
S11303406B00608571858285938540E00E94A500DD
S1130350E0916A00F0916B006481758186819781D8
S113036041E00E94A500E0916A00F0916B00848551
S11303708130A1F4868715866081718182819381A1
S113038040E00E94A500E0916A00F0916B00648156
S113039075818681978140E00E94A5000895E091CF
S11303A06800F091690084858230F9F41686158618
S11303B0608171818281938141E00E94A500E09176
S11303C06800F0916900608571858285938540E0BD
S11303D00E94A500E0916800F09169006481758134
S11303E08681978140E00E94A500E0916800F09129
S11303F06900848581111FC016861586608171810C
S11304008281938140E00E94A500E0916800F09110
S11304106900608571858285938540E00E94A5000E
S1130420E0916800F091690064817581868197810B
S113043041E00E94A500E0916800F0916900848584
S11304408130A1F4868715866081718182819381D0
S113045040E00E94A500E0916800F0916900648189
S113046075818681978140E00E94A5000895E091FE
S11304706A00F0916B008585813011F40E94670158
S1130480E0916A00F0916B008785813049F40E9405
S113049082020E946701E0916A00F0916B00178666
S11304A00895E0916800F09169008585813011F428
S11304B00E94CF01E0916800F09169008785813046
S11304C049F40E9487020E94CF01E0916800F091F4
S11304D0690017860895E0916A00F0916B0091E03D
S11304E0978784870895E0916800F091690091E00E
S11304F09787848708950E9449000E94500080E0F5
S113050090E0089510927100109270000895109276
S11305106D0010926C0008958FB780688FBF83B709
S1130520886083BF83B7856083BF8AEF8CBF82E016
S113053089BF08959C013695279536952795ABE795
S1130540B4E10E943C048E7F97709093670080937F
S1130550660008959C013695279536952795ABE757
S1130560B4E10E943C048E7F977090936500809361
S1130570640008959C013695279536952795ABE739
S1130580B4E10E943C048E7F977090936300809343
S1130590620008959C013695279536952795ABE71B
S11305A0B4E10E943C048E7F977090936100809325
S11305B0600008951F920F920FB60F9211242F938B
S11305C03F934F935F936F937F938F939F93AF93D7
S11305D0BF93EF93FF9380917200909173002091E9
S11305E06600309167008217930739F40E94D300A4
S11305F0109273001092720005C0019690937300DC
S11306008093720080917000909171002091640039
S1130610309165008217930739F40E94E10010922B
S113062071001092700005C0019690937100809340
S1130630700080916E0090916F0020916200309163
S113064063008217930739F40E94EF0010926F0041
S113065010926E0005C0019690936F0080936E0017
S113066080916C0090916D00209160003091610048
S11306708217930739F40E94FD0010926D001092C6
S11306806C0005C0019690936D0080936C00FF91FF
S1130690EF91BF91AF919F918F917F916F915F91F6
S11306A04F913F912F910F900FBE0F901F9018956F
S11306B0CF93DF93CFE8D0E08BE390E099838883F6
S11306C01A829987888721E02A879D838C8382E018
S11306D08E83CE010E9439018C85888BDF91CF9166
S11306E00895EFE8F0E084859089891719F091E086
S11306F0938B808B08958091A000813021F40E9417
S113070073021092A00008950E9451020E94710386
S11307100E947B030895CF93DF93E6E8F0E0CBE3F8
S1130720D0E0D183C08387E0828313826091860006
S11307307091870080918800909189000E945700F1
S113074081E080938E00EAE8F0E0D183C08386E004
S1130750828360918A0070918B0080918C009091CB
S11307608D000E94930060918A0070918B008091AB
S11307708C0090918D0041E00E94A500DF91CF9103
S1130780089581E080938400089580918E008130E3
S113079039F560918600709187008091880090916E
S11307A089000E946A00811110C060918A007091D2
S11307B08B0080918C0090918D0041E00E94A500F7
S11307C00E94C10310928E00089560918A00709176
S11307D08B0080918C0090918D0040E00E94A500D8
S11307E0089581E080938E000895E4E7F0E08BE3C0
S11307F090E09183808323E022839187808724E0A3
S113080022879583848385E08683CF010E940B0130
S113081008958091A2008130C1F480919B008111E0
S113082005C082E00E946B020E94F10380919B004C
S1130830823019F480E00E946B0280919B00813029
S113084011F40E946B021092A2000895809180001E
S1130850882351F080918400813031F48093A0008A
S11308600E946B021092840008950E9437020E9435
S113087026040E9409040895A29FB001B39FC001F9
S1130880A39F700D811D1124911DB29F700D811DB8
S10D08901124911D0895F894FFCF80
S10B089A040004000400040042
S9030000FC
